{
  "contractName": "Character",
  "abi": [
    {
      "inputs": [],
      "payable": false,
      "stateMutability": "nonpayable",
      "type": "constructor"
    },
    {
      "anonymous": false,
      "inputs": [
        {
          "indexed": true,
          "internalType": "address",
          "name": "owner",
          "type": "address"
        },
        {
          "indexed": true,
          "internalType": "address",
          "name": "approved",
          "type": "address"
        },
        {
          "indexed": true,
          "internalType": "uint256",
          "name": "tokenId",
          "type": "uint256"
        }
      ],
      "name": "Approval",
      "type": "event"
    },
    {
      "anonymous": false,
      "inputs": [
        {
          "indexed": true,
          "internalType": "address",
          "name": "owner",
          "type": "address"
        },
        {
          "indexed": true,
          "internalType": "address",
          "name": "operator",
          "type": "address"
        },
        {
          "indexed": false,
          "internalType": "bool",
          "name": "approved",
          "type": "bool"
        }
      ],
      "name": "ApprovalForAll",
      "type": "event"
    },
    {
      "anonymous": false,
      "inputs": [
        {
          "indexed": true,
          "internalType": "address",
          "name": "from",
          "type": "address"
        },
        {
          "indexed": true,
          "internalType": "address",
          "name": "to",
          "type": "address"
        },
        {
          "indexed": true,
          "internalType": "uint256",
          "name": "tokenId",
          "type": "uint256"
        }
      ],
      "name": "Transfer",
      "type": "event"
    },
    {
      "constant": false,
      "inputs": [
        {
          "internalType": "address",
          "name": "to",
          "type": "address"
        },
        {
          "internalType": "uint256",
          "name": "tokenId",
          "type": "uint256"
        }
      ],
      "name": "approve",
      "outputs": [],
      "payable": false,
      "stateMutability": "nonpayable",
      "type": "function"
    },
    {
      "constant": true,
      "inputs": [
        {
          "internalType": "address",
          "name": "owner",
          "type": "address"
        }
      ],
      "name": "balanceOf",
      "outputs": [
        {
          "internalType": "uint256",
          "name": "",
          "type": "uint256"
        }
      ],
      "payable": false,
      "stateMutability": "view",
      "type": "function"
    },
    {
      "constant": true,
      "inputs": [
        {
          "internalType": "uint256",
          "name": "",
          "type": "uint256"
        }
      ],
      "name": "baseFace",
      "outputs": [
        {
          "internalType": "string",
          "name": "",
          "type": "string"
        }
      ],
      "payable": false,
      "stateMutability": "view",
      "type": "function"
    },
    {
      "constant": true,
      "inputs": [
        {
          "internalType": "uint256",
          "name": "",
          "type": "uint256"
        }
      ],
      "name": "baseHair",
      "outputs": [
        {
          "internalType": "string",
          "name": "",
          "type": "string"
        }
      ],
      "payable": false,
      "stateMutability": "view",
      "type": "function"
    },
    {
      "constant": true,
      "inputs": [
        {
          "internalType": "uint256",
          "name": "",
          "type": "uint256"
        }
      ],
      "name": "characters",
      "outputs": [
        {
          "internalType": "uint256",
          "name": "id",
          "type": "uint256"
        },
        {
          "internalType": "string",
          "name": "hair",
          "type": "string"
        },
        {
          "internalType": "string",
          "name": "face",
          "type": "string"
        },
        {
          "internalType": "uint256",
          "name": "attack",
          "type": "uint256"
        },
        {
          "internalType": "uint256",
          "name": "mother",
          "type": "uint256"
        },
        {
          "internalType": "uint256",
          "name": "father",
          "type": "uint256"
        }
      ],
      "payable": false,
      "stateMutability": "view",
      "type": "function"
    },
    {
      "constant": true,
      "inputs": [
        {
          "internalType": "uint256",
          "name": "tokenId",
          "type": "uint256"
        }
      ],
      "name": "getApproved",
      "outputs": [
        {
          "internalType": "address",
          "name": "",
          "type": "address"
        }
      ],
      "payable": false,
      "stateMutability": "view",
      "type": "function"
    },
    {
      "constant": true,
      "inputs": [
        {
          "internalType": "address",
          "name": "owner",
          "type": "address"
        },
        {
          "internalType": "address",
          "name": "operator",
          "type": "address"
        }
      ],
      "name": "isApprovedForAll",
      "outputs": [
        {
          "internalType": "bool",
          "name": "",
          "type": "bool"
        }
      ],
      "payable": false,
      "stateMutability": "view",
      "type": "function"
    },
    {
      "constant": true,
      "inputs": [],
      "name": "name",
      "outputs": [
        {
          "internalType": "string",
          "name": "",
          "type": "string"
        }
      ],
      "payable": false,
      "stateMutability": "view",
      "type": "function"
    },
    {
      "constant": true,
      "inputs": [
        {
          "internalType": "uint256",
          "name": "tokenId",
          "type": "uint256"
        }
      ],
      "name": "ownerOf",
      "outputs": [
        {
          "internalType": "address",
          "name": "",
          "type": "address"
        }
      ],
      "payable": false,
      "stateMutability": "view",
      "type": "function"
    },
    {
      "constant": false,
      "inputs": [
        {
          "internalType": "address",
          "name": "from",
          "type": "address"
        },
        {
          "internalType": "address",
          "name": "to",
          "type": "address"
        },
        {
          "internalType": "uint256",
          "name": "tokenId",
          "type": "uint256"
        }
      ],
      "name": "safeTransferFrom",
      "outputs": [],
      "payable": false,
      "stateMutability": "nonpayable",
      "type": "function"
    },
    {
      "constant": false,
      "inputs": [
        {
          "internalType": "address",
          "name": "from",
          "type": "address"
        },
        {
          "internalType": "address",
          "name": "to",
          "type": "address"
        },
        {
          "internalType": "uint256",
          "name": "tokenId",
          "type": "uint256"
        },
        {
          "internalType": "bytes",
          "name": "_data",
          "type": "bytes"
        }
      ],
      "name": "safeTransferFrom",
      "outputs": [],
      "payable": false,
      "stateMutability": "nonpayable",
      "type": "function"
    },
    {
      "constant": false,
      "inputs": [
        {
          "internalType": "address",
          "name": "to",
          "type": "address"
        },
        {
          "internalType": "bool",
          "name": "approved",
          "type": "bool"
        }
      ],
      "name": "setApprovalForAll",
      "outputs": [],
      "payable": false,
      "stateMutability": "nonpayable",
      "type": "function"
    },
    {
      "constant": true,
      "inputs": [
        {
          "internalType": "bytes4",
          "name": "interfaceId",
          "type": "bytes4"
        }
      ],
      "name": "supportsInterface",
      "outputs": [
        {
          "internalType": "bool",
          "name": "",
          "type": "bool"
        }
      ],
      "payable": false,
      "stateMutability": "view",
      "type": "function"
    },
    {
      "constant": true,
      "inputs": [],
      "name": "symbol",
      "outputs": [
        {
          "internalType": "string",
          "name": "",
          "type": "string"
        }
      ],
      "payable": false,
      "stateMutability": "view",
      "type": "function"
    },
    {
      "constant": true,
      "inputs": [
        {
          "internalType": "uint256",
          "name": "index",
          "type": "uint256"
        }
      ],
      "name": "tokenByIndex",
      "outputs": [
        {
          "internalType": "uint256",
          "name": "",
          "type": "uint256"
        }
      ],
      "payable": false,
      "stateMutability": "view",
      "type": "function"
    },
    {
      "constant": true,
      "inputs": [
        {
          "internalType": "address",
          "name": "owner",
          "type": "address"
        },
        {
          "internalType": "uint256",
          "name": "index",
          "type": "uint256"
        }
      ],
      "name": "tokenOfOwnerByIndex",
      "outputs": [
        {
          "internalType": "uint256",
          "name": "",
          "type": "uint256"
        }
      ],
      "payable": false,
      "stateMutability": "view",
      "type": "function"
    },
    {
      "constant": true,
      "inputs": [
        {
          "internalType": "uint256",
          "name": "",
          "type": "uint256"
        }
      ],
      "name": "tokenProperty",
      "outputs": [
        {
          "internalType": "uint256",
          "name": "id",
          "type": "uint256"
        },
        {
          "internalType": "string",
          "name": "hair",
          "type": "string"
        },
        {
          "internalType": "string",
          "name": "face",
          "type": "string"
        },
        {
          "internalType": "uint256",
          "name": "attack",
          "type": "uint256"
        },
        {
          "internalType": "uint256",
          "name": "mother",
          "type": "uint256"
        },
        {
          "internalType": "uint256",
          "name": "father",
          "type": "uint256"
        }
      ],
      "payable": false,
      "stateMutability": "view",
      "type": "function"
    },
    {
      "constant": true,
      "inputs": [
        {
          "internalType": "uint256",
          "name": "tokenId",
          "type": "uint256"
        }
      ],
      "name": "tokenURI",
      "outputs": [
        {
          "internalType": "string",
          "name": "",
          "type": "string"
        }
      ],
      "payable": false,
      "stateMutability": "view",
      "type": "function"
    },
    {
      "constant": true,
      "inputs": [],
      "name": "totalSupply",
      "outputs": [
        {
          "internalType": "uint256",
          "name": "",
          "type": "uint256"
        }
      ],
      "payable": false,
      "stateMutability": "view",
      "type": "function"
    },
    {
      "constant": false,
      "inputs": [
        {
          "internalType": "address",
          "name": "from",
          "type": "address"
        },
        {
          "internalType": "address",
          "name": "to",
          "type": "address"
        },
        {
          "internalType": "uint256",
          "name": "tokenId",
          "type": "uint256"
        }
      ],
      "name": "transferFrom",
      "outputs": [],
      "payable": false,
      "stateMutability": "nonpayable",
      "type": "function"
    },
    {
      "constant": false,
      "inputs": [],
      "name": "mint",
      "outputs": [],
      "payable": false,
      "stateMutability": "nonpayable",
      "type": "function"
    },
    {
      "constant": true,
      "inputs": [
        {
          "internalType": "uint256",
          "name": "_tokenId",
          "type": "uint256"
        }
      ],
      "name": "getTokenProperties",
      "outputs": [
        {
          "internalType": "uint256",
          "name": "_id",
          "type": "uint256"
        },
        {
          "internalType": "string",
          "name": "_hair",
          "type": "string"
        },
        {
          "internalType": "string",
          "name": "_face",
          "type": "string"
        },
        {
          "internalType": "uint256",
          "name": "_attack",
          "type": "uint256"
        },
        {
          "internalType": "uint256",
          "name": "_mother",
          "type": "uint256"
        },
        {
          "internalType": "uint256",
          "name": "_father",
          "type": "uint256"
        }
      ],
      "payable": false,
      "stateMutability": "view",
      "type": "function"
    },
    {
      "constant": false,
      "inputs": [
        {
          "internalType": "uint256",
          "name": "min",
          "type": "uint256"
        },
        {
          "internalType": "uint256",
          "name": "max",
          "type": "uint256"
        }
      ],
      "name": "rand",
      "outputs": [
        {
          "internalType": "uint256",
          "name": "",
          "type": "uint256"
        }
      ],
      "payable": false,
      "stateMutability": "nonpayable",
      "type": "function"
    },
    {
      "constant": false,
      "inputs": [
        {
          "internalType": "uint256",
          "name": "motherid",
          "type": "uint256"
        },
        {
          "internalType": "uint256",
          "name": "fatherid",
          "type": "uint256"
        }
      ],
      "name": "createHero",
      "outputs": [
        {
          "internalType": "uint256",
          "name": "",
          "type": "uint256"
        }
      ],
      "payable": false,
      "stateMutability": "nonpayable",
      "type": "function"
    }
  ],
  "bytecode": "0x608060405260405180608001604052806040518060400160405280600581526020017f333030323000000000000000000000000000000000000000000000000000000081525081526020016040518060400160405280600581526020017f333034303000000000000000000000000000000000000000000000000000000081525081526020016040518060400160405280600581526020017f333030303000000000000000000000000000000000000000000000000000000081525081526020016040518060400160405280600581526020017f3331343030000000000000000000000000000000000000000000000000000000815250815250600d9060046200010b9291906200043a565b5060405180608001604052806040518060400160405280600581526020017f353030303200000000000000000000000000000000000000000000000000000081525081526020016040518060400160405280600581526020017f353031323600000000000000000000000000000000000000000000000000000081525081526020016040518060400160405280600581526020017f353030303600000000000000000000000000000000000000000000000000000081525081526020016040518060400160405280600581526020017f3530303339000000000000000000000000000000000000000000000000000000815250815250600e906004620002139291906200043a565b5060006011553480156200022657600080fd5b506040518060400160405280600981526020017f43686172616374657200000000000000000000000000000000000000000000008152506040518060400160405280600981526020017f43484152414354455200000000000000000000000000000000000000000000008152508181620002ad6301ffc9a760e01b6200033160201b60201c565b620002c56380ac58cd60e01b6200033160201b60201c565b620002dd63780e9d6360e01b6200033160201b60201c565b8160099080519060200190620002f5929190620004a1565b5080600a90805190602001906200030e929190620004a1565b5062000327635b5e139f60e01b6200033160201b60201c565b5050505062000654565b63ffffffff60e01b817bffffffffffffffffffffffffffffffffffffffffffffffffffffffff19161415620003ce576040517f08c379a000000000000000000000000000000000000000000000000000000000815260040180806020018281038252601c8152602001807f4552433136353a20696e76616c696420696e746572666163652069640000000081525060200191505060405180910390fd5b6001600080837bffffffffffffffffffffffffffffffffffffffffffffffffffffffff19167bffffffffffffffffffffffffffffffffffffffffffffffffffffffff1916815260200190815260200160002060006101000a81548160ff02191690831515021790555050565b8280548282559060005260206000209081019282156200048e579160200282015b828111156200048d5782518290805190602001906200047c92919062000528565b50916020019190600101906200045b565b5b5090506200049d9190620005af565b5090565b828054600181600116156101000203166002900490600052602060002090601f016020900481019282601f10620004e457805160ff191683800117855562000515565b8280016001018555821562000515579182015b8281111562000514578251825591602001919060010190620004f7565b5b509050620005249190620005e0565b5090565b828054600181600116156101000203166002900490600052602060002090601f016020900481019282601f106200056b57805160ff19168380011785556200059c565b828001600101855582156200059c579182015b828111156200059b5782518255916020019190600101906200057e565b5b509050620005ab9190620005e0565b5090565b620005dd91905b80821115620005d95760008181620005cf919062000608565b50600101620005b6565b5090565b90565b6200060591905b8082111562000601576000816000905550600101620005e7565b5090565b90565b50805460018160011615610100020316600290046000825580601f1062000630575062000651565b601f016020900490600052602060002090810190620006509190620005e0565b5b50565b6138e080620006646000396000f3fe608060405234801561001057600080fd5b50600436106101585760003560e01c80634f6ccce7116100c357806395d89b411161007c57806395d89b4114610a96578063a22cb46514610b19578063b88d4fde14610b69578063c4f4113114610c6e578063c87b56dd14610cba578063e985e9c514610d6157610158565b80634f6ccce7146107f45780636352211e1461083657806370a08231146108a45780638c6ff1bd146108fc57806391c3d15e146109a357806395032b6214610a4a57610158565b806318160ddd1161011557806318160ddd1461043a57806323b872dd146104585780632f745c59146104c657806342842e0e146105285780634810bc59146105965780634edea111146106c557610158565b806301ffc9a71461015d57806306fdde03146101c2578063081812fc1461024557806308c243aa146102b3578063095ea7b3146103e25780631249c58b14610430575b600080fd5b6101a86004803603602081101561017357600080fd5b8101908080357bffffffffffffffffffffffffffffffffffffffffffffffffffffffff19169060200190929190505050610ddd565b604051808215151515815260200191505060405180910390f35b6101ca610e44565b6040518080602001828103825283818151815260200191508051906020019080838360005b8381101561020a5780820151818401526020810190506101ef565b50505050905090810190601f1680156102375780820380516001836020036101000a031916815260200191505b509250505060405180910390f35b6102716004803603602081101561025b57600080fd5b8101908080359060200190929190505050610ee6565b604051808273ffffffffffffffffffffffffffffffffffffffff1673ffffffffffffffffffffffffffffffffffffffff16815260200191505060405180910390f35b6102df600480360360208110156102c957600080fd5b8101908080359060200190929190505050610f81565b604051808781526020018060200180602001868152602001858152602001848152602001838103835288818151815260200191508051906020019080838360005b8381101561033b578082015181840152602081019050610320565b50505050905090810190601f1680156103685780820380516001836020036101000a031916815260200191505b50838103825287818151815260200191508051906020019080838360005b838110156103a1578082015181840152602081019050610386565b50505050905090810190601f1680156103ce5780820380516001836020036101000a031916815260200191505b509850505050505050505060405180910390f35b61042e600480360360408110156103f857600080fd5b81019080803573ffffffffffffffffffffffffffffffffffffffff169060200190929190803590602001909291905050506110ed565b005b6104386112c6565b005b6104426115e0565b6040518082815260200191505060405180910390f35b6104c46004803603606081101561046e57600080fd5b81019080803573ffffffffffffffffffffffffffffffffffffffff169060200190929190803573ffffffffffffffffffffffffffffffffffffffff169060200190929190803590602001909291905050506115ed565b005b610512600480360360408110156104dc57600080fd5b81019080803573ffffffffffffffffffffffffffffffffffffffff1690602001909291908035906020019092919050505061165c565b6040518082815260200191505060405180910390f35b6105946004803603606081101561053e57600080fd5b81019080803573ffffffffffffffffffffffffffffffffffffffff169060200190929190803573ffffffffffffffffffffffffffffffffffffffff1690602001909291908035906020019092919050505061171b565b005b6105c2600480360360208110156105ac57600080fd5b810190808035906020019092919050505061173b565b604051808781526020018060200180602001868152602001858152602001848152602001838103835288818151815260200191508051906020019080838360005b8381101561061e578082015181840152602081019050610603565b50505050905090810190601f16801561064b5780820380516001836020036101000a031916815260200191505b50838103825287818151815260200191508051906020019080838360005b83811015610684578082015181840152602081019050610669565b50505050905090810190601f1680156106b15780820380516001836020036101000a031916815260200191505b509850505050505050505060405180910390f35b6106f1600480360360208110156106db57600080fd5b81019080803590602001909291905050506118b4565b604051808781526020018060200180602001868152602001858152602001848152602001838103835288818151815260200191508051906020019080838360005b8381101561074d578082015181840152602081019050610732565b50505050905090810190601f16801561077a5780820380516001836020036101000a031916815260200191505b50838103825287818151815260200191508051906020019080838360005b838110156107b3578082015181840152602081019050610798565b50505050905090810190601f1680156107e05780820380516001836020036101000a031916815260200191505b509850505050505050505060405180910390f35b6108206004803603602081101561080a57600080fd5b8101908080359060200190929190505050611a93565b6040518082815260200191505060405180910390f35b6108626004803603602081101561084c57600080fd5b8101908080359060200190929190505050611b13565b604051808273ffffffffffffffffffffffffffffffffffffffff1673ffffffffffffffffffffffffffffffffffffffff16815260200191505060405180910390f35b6108e6600480360360208110156108ba57600080fd5b81019080803573ffffffffffffffffffffffffffffffffffffffff169060200190929190505050611bdb565b6040518082815260200191505060405180910390f35b6109286004803603602081101561091257600080fd5b8101908080359060200190929190505050611cb0565b6040518080602001828103825283818151815260200191508051906020019080838360005b8381101561096857808201518184015260208101905061094d565b50505050905090810190601f1680156109955780820380516001836020036101000a031916815260200191505b509250505060405180910390f35b6109cf600480360360208110156109b957600080fd5b8101908080359060200190929190505050611d69565b6040518080602001828103825283818151815260200191508051906020019080838360005b83811015610a0f5780820151818401526020810190506109f4565b50505050905090810190601f168015610a3c5780820380516001836020036101000a031916815260200191505b509250505060405180910390f35b610a8060048036036040811015610a6057600080fd5b810190808035906020019092919080359060200190929190505050611e22565b6040518082815260200191505060405180910390f35b610a9e611e77565b6040518080602001828103825283818151815260200191508051906020019080838360005b83811015610ade578082015181840152602081019050610ac3565b50505050905090810190601f168015610b0b5780820380516001836020036101000a031916815260200191505b509250505060405180910390f35b610b6760048036036040811015610b2f57600080fd5b81019080803573ffffffffffffffffffffffffffffffffffffffff169060200190929190803515159060200190929190505050611f19565b005b610c6c60048036036080811015610b7f57600080fd5b81019080803573ffffffffffffffffffffffffffffffffffffffff169060200190929190803573ffffffffffffffffffffffffffffffffffffffff1690602001909291908035906020019092919080359060200190640100000000811115610be657600080fd5b820183602082011115610bf857600080fd5b80359060200191846001830284011164010000000083111715610c1a57600080fd5b91908080601f016020809104026020016040519081016040528093929190818152602001838380828437600081840152601f19601f8201169050808301925050505050505091929192905050506120bc565b005b610ca460048036036040811015610c8457600080fd5b81019080803590602001909291908035906020019092919050505061212e565b6040518082815260200191505060405180910390f35b610ce660048036036020811015610cd057600080fd5b8101908080359060200190929190505050612673565b6040518080602001828103825283818151815260200191508051906020019080838360005b83811015610d26578082015181840152602081019050610d0b565b50505050905090810190601f168015610d535780820380516001836020036101000a031916815260200191505b509250505060405180910390f35b610dc360048036036040811015610d7757600080fd5b81019080803573ffffffffffffffffffffffffffffffffffffffff169060200190929190803573ffffffffffffffffffffffffffffffffffffffff169060200190929190505050612786565b604051808215151515815260200191505060405180910390f35b6000806000837bffffffffffffffffffffffffffffffffffffffffffffffffffffffff19167bffffffffffffffffffffffffffffffffffffffffffffffffffffffff1916815260200190815260200160002060009054906101000a900460ff169050919050565b606060098054600181600116156101000203166002900480601f016020809104026020016040519081016040528092919081815260200182805460018160011615610100020316600290048015610edc5780601f10610eb157610100808354040283529160200191610edc565b820191906000526020600020905b815481529060010190602001808311610ebf57829003601f168201915b5050505050905090565b6000610ef18261281a565b610f46576040517f08c379a000000000000000000000000000000000000000000000000000000000815260040180806020018281038252602c8152602001806137aa602c913960400191505060405180910390fd5b6002600083815260200190815260200160002060009054906101000a900473ffffffffffffffffffffffffffffffffffffffff169050919050565b600c602052806000526040600020600091509050806000015490806001018054600181600116156101000203166002900480601f0160208091040260200160405190810160405280929190818152602001828054600181600116156101000203166002900480156110335780601f1061100857610100808354040283529160200191611033565b820191906000526020600020905b81548152906001019060200180831161101657829003601f168201915b505050505090806002018054600181600116156101000203166002900480601f0160208091040260200160405190810160405280929190818152602001828054600181600116156101000203166002900480156110d15780601f106110a6576101008083540402835291602001916110d1565b820191906000526020600020905b8154815290600101906020018083116110b457829003601f168201915b5050505050908060030154908060040154908060050154905086565b60006110f882611b13565b90508073ffffffffffffffffffffffffffffffffffffffff168373ffffffffffffffffffffffffffffffffffffffff16141561117f576040517f08c379a000000000000000000000000000000000000000000000000000000000815260040180806020018281038252602181526020018061382e6021913960400191505060405180910390fd5b8073ffffffffffffffffffffffffffffffffffffffff163373ffffffffffffffffffffffffffffffffffffffff1614806111bf57506111be8133612786565b5b611214576040517f08c379a000000000000000000000000000000000000000000000000000000000815260040180806020018281038252603881526020018061371f6038913960400191505060405180910390fd5b826002600084815260200190815260200160002060006101000a81548173ffffffffffffffffffffffffffffffffffffffff021916908373ffffffffffffffffffffffffffffffffffffffff160217905550818373ffffffffffffffffffffffffffffffffffffffff168273ffffffffffffffffffffffffffffffffffffffff167f8c5be1e5ebec7d5bd14f71427d1e84f3dd0314c0f7b2291e5b200ac8c7c3b92560405160405180910390a4505050565b60006112d06115e0565b90506060600d6112e66000600d80549050611e22565b815481106112f057fe5b906000526020600020018054600181600116156101000203166002900480601f01602080910402602001604051908101604052809291908181526020018280546001816001161561010002031660029004801561138e5780601f106113635761010080835404028352916020019161138e565b820191906000526020600020905b81548152906001019060200180831161137157829003601f168201915b505050505090506060600e6113a96000600e80549050611e22565b815481106113b357fe5b906000526020600020018054600181600116156101000203166002900480601f0160208091040260200160405190810160405280929190818152602001828054600181600116156101000203166002900480156114515780601f1061142657610100808354040283529160200191611451565b820191906000526020600020905b81548152906001019060200180831161143457829003601f168201915b50505050509050600061146660006064611e22565b9050600f6040518060c00160405280868152602001858152602001848152602001838152602001600081526020016000815250908060018154018082558091505090600182039060005260206000209060060201600090919290919091506000820151816000015560208201518160010190805190602001906114ea9291906135a0565b5060408201518160020190805190602001906115079291906135a0565b50606082015181600301556080820151816004015560a082015181600501555050506040518060c00160405280858152602001848152602001838152602001828152602001600081526020016000815250600c60008681526020019081526020016000206000820151816000015560208201518160010190805190602001906115919291906135a0565b5060408201518160020190805190602001906115ae9291906135a0565b50606082015181600301556080820151816004015560a082015181600501559050506115da338561288c565b50505050565b6000600780549050905090565b6115f733826128ad565b61164c576040517f08c379a000000000000000000000000000000000000000000000000000000000815260040180806020018281038252603181526020018061384f6031913960400191505060405180910390fd5b6116578383836129a1565b505050565b600061166783611bdb565b82106116be576040517f08c379a000000000000000000000000000000000000000000000000000000000815260040180806020018281038252602b815260200180613672602b913960400191505060405180910390fd5b600560008473ffffffffffffffffffffffffffffffffffffffff1673ffffffffffffffffffffffffffffffffffffffff168152602001908152602001600020828154811061170857fe5b9060005260206000200154905092915050565b611736838383604051806020016040528060008152506120bc565b505050565b600f818154811061174857fe5b9060005260206000209060060201600091509050806000015490806001018054600181600116156101000203166002900480601f0160208091040260200160405190810160405280929190818152602001828054600181600116156101000203166002900480156117fa5780601f106117cf576101008083540402835291602001916117fa565b820191906000526020600020905b8154815290600101906020018083116117dd57829003601f168201915b505050505090806002018054600181600116156101000203166002900480601f0160208091040260200160405190810160405280929190818152602001828054600181600116156101000203166002900480156118985780601f1061186d57610100808354040283529160200191611898565b820191906000526020600020905b81548152906001019060200180831161187b57829003601f168201915b5050505050908060030154908060040154908060050154905086565b60006060806000806000600c600088815260200190815260200160002060000154600c6000898152602001908152602001600020600101600c60008a8152602001908152602001600020600201600c60008b815260200190815260200160002060030154600c60008c815260200190815260200160002060040154600c60008d815260200190815260200160002060050154848054600181600116156101000203166002900480601f0160208091040260200160405190810160405280929190818152602001828054600181600116156101000203166002900480156119db5780601f106119b0576101008083540402835291602001916119db565b820191906000526020600020905b8154815290600101906020018083116119be57829003601f168201915b50505050509450838054600181600116156101000203166002900480601f016020809104026020016040519081016040528092919081815260200182805460018160011615610100020316600290048015611a775780601f10611a4c57610100808354040283529160200191611a77565b820191906000526020600020905b815481529060010190602001808311611a5a57829003601f168201915b5050505050935095509550955095509550955091939550919395565b6000611a9d6115e0565b8210611af4576040517f08c379a000000000000000000000000000000000000000000000000000000000815260040180806020018281038252602c815260200180613880602c913960400191505060405180910390fd5b60078281548110611b0157fe5b90600052602060002001549050919050565b6000806001600084815260200190815260200160002060009054906101000a900473ffffffffffffffffffffffffffffffffffffffff169050600073ffffffffffffffffffffffffffffffffffffffff168173ffffffffffffffffffffffffffffffffffffffff161415611bd2576040517f08c379a00000000000000000000000000000000000000000000000000000000081526004018080602001828103825260298152602001806137816029913960400191505060405180910390fd5b80915050919050565b60008073ffffffffffffffffffffffffffffffffffffffff168273ffffffffffffffffffffffffffffffffffffffff161415611c62576040517f08c379a000000000000000000000000000000000000000000000000000000000815260040180806020018281038252602a815260200180613757602a913960400191505060405180910390fd5b611ca9600360008473ffffffffffffffffffffffffffffffffffffffff1673ffffffffffffffffffffffffffffffffffffffff1681526020019081526020016000206129c5565b9050919050565b600e8181548110611cbd57fe5b906000526020600020016000915090508054600181600116156101000203166002900480601f016020809104026020016040519081016040528092919081815260200182805460018160011615610100020316600290048015611d615780601f10611d3657610100808354040283529160200191611d61565b820191906000526020600020905b815481529060010190602001808311611d4457829003601f168201915b505050505081565b600d8181548110611d7657fe5b906000526020600020016000915090508054600181600116156101000203166002900480601f016020809104026020016040519081016040528092919081815260200182805460018160011615610100020316600290048015611e1a5780601f10611def57610100808354040283529160200191611e1a565b820191906000526020600020905b815481529060010190602001808311611dfd57829003601f168201915b505050505081565b600060116000815480929190600101919050555082828401601154604051602001808281526020019150506040516020818303038152906040528051906020012060001c81611e6d57fe5b0603905092915050565b6060600a8054600181600116156101000203166002900480601f016020809104026020016040519081016040528092919081815260200182805460018160011615610100020316600290048015611f0f5780601f10611ee457610100808354040283529160200191611f0f565b820191906000526020600020905b815481529060010190602001808311611ef257829003601f168201915b5050505050905090565b3373ffffffffffffffffffffffffffffffffffffffff168273ffffffffffffffffffffffffffffffffffffffff161415611fbb576040517f08c379a00000000000000000000000000000000000000000000000000000000081526004018080602001828103825260198152602001807f4552433732313a20617070726f766520746f2063616c6c65720000000000000081525060200191505060405180910390fd5b80600460003373ffffffffffffffffffffffffffffffffffffffff1673ffffffffffffffffffffffffffffffffffffffff16815260200190815260200160002060008473ffffffffffffffffffffffffffffffffffffffff1673ffffffffffffffffffffffffffffffffffffffff16815260200190815260200160002060006101000a81548160ff0219169083151502179055508173ffffffffffffffffffffffffffffffffffffffff163373ffffffffffffffffffffffffffffffffffffffff167f17307eab39ab6107e8899845ad3d59bd9653f200f220920489ca2b5937696c3183604051808215151515815260200191505060405180910390a35050565b6120c78484846115ed565b6120d3848484846129d3565b612128576040517f08c379a000000000000000000000000000000000000000000000000000000000815260040180806020018281038252603281526020018061369d6032913960400191505060405180910390fd5b50505050565b6000806121396115e0565b9050606080600061214c60006064611e22565b9050600061215c60006064611e22565b9050600061216c60006064611e22565b9050816000111580156121805750601e8211155b1561223b57600c60008a81526020019081526020016000206001018054600181600116156101000203166002900480601f01602080910402602001604051908101604052809291908181526020018280546001816001161561010002031660029004801561222f5780601f106122045761010080835404028352916020019161222f565b820191906000526020600020905b81548152906001019060200180831161221257829003601f168201915b50505050509450612356565b81601f1115801561224d5750603c8211155b1561230857600c60008981526020019081526020016000206001018054600181600116156101000203166002900480601f0160208091040260200160405190810160405280929190818152602001828054600181600116156101000203166002900480156122fc5780601f106122d1576101008083540402835291602001916122fc565b820191906000526020600020905b8154815290600101906020018083116122df57829003601f168201915b50505050509450612355565b600061231660006064611e22565b9050600a818161232257fe5b049050600a81029050600061233960006007611e22565b905080820191506175308201915061235082612bbc565b965050505b5b601e81101561241557600c60008a81526020019081526020016000206002018054600181600116156101000203166002900480601f0160208091040260200160405190810160405280929190818152602001828054600181600116156101000203166002900480156124095780601f106123de57610100808354040283529160200191612409565b820191906000526020600020905b8154815290600101906020018083116123ec57829003601f168201915b505050505093506124f9565b603c8110156124d457600c60008981526020019081526020016000206002018054600181600116156101000203166002900480601f0160208091040260200160405190810160405280929190818152602001828054600181600116156101000203166002900480156124c85780601f1061249d576101008083540402835291602001916124c8565b820191906000526020600020905b8154815290600101906020018083116124ab57829003601f168201915b505050505093506124f8565b60006124e260006064611e22565b9050614e20810190506124f481612bbc565b9450505b5b600f6040518060c001604052808881526020018781526020018681526020018581526020018b81526020018a815250908060018154018082558091505090600182039060005260206000209060060201600090919290919091506000820151816000015560208201518160010190805190602001906125799291906135a0565b5060408201518160020190805190602001906125969291906135a0565b50606082015181600301556080820151816004015560a082015181600501555050506040518060c001604052808781526020018681526020018581526020018481526020018a815260200189815250600c600088815260200190815260200160002060008201518160000155602082015181600101908051906020019061261e9291906135a0565b50604082015181600201908051906020019061263b9291906135a0565b50606082015181600301556080820151816004015560a08201518160050155905050612667338761288c565b50505050505092915050565b606061267e8261281a565b6126d3576040517f08c379a000000000000000000000000000000000000000000000000000000000815260040180806020018281038252602f8152602001806137ff602f913960400191505060405180910390fd5b600b60008381526020019081526020016000208054600181600116156101000203166002900480601f01602080910402602001604051908101604052809291908181526020018280546001816001161561010002031660029004801561277a5780601f1061274f5761010080835404028352916020019161277a565b820191906000526020600020905b81548152906001019060200180831161275d57829003601f168201915b50505050509050919050565b6000600460008473ffffffffffffffffffffffffffffffffffffffff1673ffffffffffffffffffffffffffffffffffffffff16815260200190815260200160002060008373ffffffffffffffffffffffffffffffffffffffff1673ffffffffffffffffffffffffffffffffffffffff16815260200190815260200160002060009054906101000a900460ff16905092915050565b6000806001600084815260200190815260200160002060009054906101000a900473ffffffffffffffffffffffffffffffffffffffff169050600073ffffffffffffffffffffffffffffffffffffffff168173ffffffffffffffffffffffffffffffffffffffff161415915050919050565b6128968282612ce9565b6128a08282612f01565b6128a981612fc8565b5050565b60006128b88261281a565b61290d576040517f08c379a000000000000000000000000000000000000000000000000000000000815260040180806020018281038252602c8152602001806136f3602c913960400191505060405180910390fd5b600061291883611b13565b90508073ffffffffffffffffffffffffffffffffffffffff168473ffffffffffffffffffffffffffffffffffffffff16148061298757508373ffffffffffffffffffffffffffffffffffffffff1661296f84610ee6565b73ffffffffffffffffffffffffffffffffffffffff16145b8061299857506129978185612786565b5b91505092915050565b6129ac838383613014565b6129b6838261326f565b6129c08282612f01565b505050565b600081600001549050919050565b60006129f48473ffffffffffffffffffffffffffffffffffffffff1661340d565b612a015760019050612bb4565b60008473ffffffffffffffffffffffffffffffffffffffff1663150b7a02338887876040518563ffffffff1660e01b8152600401808573ffffffffffffffffffffffffffffffffffffffff1673ffffffffffffffffffffffffffffffffffffffff1681526020018473ffffffffffffffffffffffffffffffffffffffff1673ffffffffffffffffffffffffffffffffffffffff16815260200183815260200180602001828103825283818151815260200191508051906020019080838360005b83811015612adc578082015181840152602081019050612ac1565b50505050905090810190601f168015612b095780820380516001836020036101000a031916815260200191505b5095505050505050602060405180830381600087803b158015612b2b57600080fd5b505af1158015612b3f573d6000803e3d6000fd5b505050506040513d6020811015612b5557600080fd5b8101908080519060200190929190505050905063150b7a0260e01b7bffffffffffffffffffffffffffffffffffffffffffffffffffffffff1916817bffffffffffffffffffffffffffffffffffffffffffffffffffffffff1916149150505b949350505050565b60606000821415612c04576040518060400160405280600181526020017f30000000000000000000000000000000000000000000000000000000000000008152509050612ce4565b600082905060005b60008214612c2e578080600101915050600a8281612c2657fe5b049150612c0c565b6060816040519080825280601f01601f191660200182016040528015612c635781602001600182028038833980820191505090505b50905060006001830390505b60008614612cdc57600a8681612c8157fe5b0660300160f81b82828060019003935081518110612c9b57fe5b60200101907effffffffffffffffffffffffffffffffffffffffffffffffffffffffffffff1916908160001a905350600a8681612cd457fe5b049550612c6f565b819450505050505b919050565b600073ffffffffffffffffffffffffffffffffffffffff168273ffffffffffffffffffffffffffffffffffffffff161415612d8c576040517f08c379a00000000000000000000000000000000000000000000000000000000081526004018080602001828103825260208152602001807f4552433732313a206d696e7420746f20746865207a65726f206164647265737381525060200191505060405180910390fd5b612d958161281a565b15612e08576040517f08c379a000000000000000000000000000000000000000000000000000000000815260040180806020018281038252601c8152602001807f4552433732313a20746f6b656e20616c7265616479206d696e7465640000000081525060200191505060405180910390fd5b816001600083815260200190815260200160002060006101000a81548173ffffffffffffffffffffffffffffffffffffffff021916908373ffffffffffffffffffffffffffffffffffffffff160217905550612ea1600360008473ffffffffffffffffffffffffffffffffffffffff1673ffffffffffffffffffffffffffffffffffffffff168152602001908152602001600020613420565b808273ffffffffffffffffffffffffffffffffffffffff16600073ffffffffffffffffffffffffffffffffffffffff167fddf252ad1be2c89b69c2b068fc378daa952ba7f163c4a11628f55a4df523b3ef60405160405180910390a45050565b600560008373ffffffffffffffffffffffffffffffffffffffff1673ffffffffffffffffffffffffffffffffffffffff168152602001908152602001600020805490506006600083815260200190815260200160002081905550600560008373ffffffffffffffffffffffffffffffffffffffff1673ffffffffffffffffffffffffffffffffffffffff1681526020019081526020016000208190806001815401808255809150509060018203906000526020600020016000909192909190915055505050565b6007805490506008600083815260200190815260200160002081905550600781908060018154018082558091505090600182039060005260206000200160009091929091909150555050565b8273ffffffffffffffffffffffffffffffffffffffff1661303482611b13565b73ffffffffffffffffffffffffffffffffffffffff16146130a0576040517f08c379a00000000000000000000000000000000000000000000000000000000081526004018080602001828103825260298152602001806137d66029913960400191505060405180910390fd5b600073ffffffffffffffffffffffffffffffffffffffff168273ffffffffffffffffffffffffffffffffffffffff161415613126576040517f08c379a00000000000000000000000000000000000000000000000000000000081526004018080602001828103825260248152602001806136cf6024913960400191505060405180910390fd5b61312f81613436565b613176600360008573ffffffffffffffffffffffffffffffffffffffff1673ffffffffffffffffffffffffffffffffffffffff1681526020019081526020016000206134f4565b6131bd600360008473ffffffffffffffffffffffffffffffffffffffff1673ffffffffffffffffffffffffffffffffffffffff168152602001908152602001600020613420565b816001600083815260200190815260200160002060006101000a81548173ffffffffffffffffffffffffffffffffffffffff021916908373ffffffffffffffffffffffffffffffffffffffff160217905550808273ffffffffffffffffffffffffffffffffffffffff168473ffffffffffffffffffffffffffffffffffffffff167fddf252ad1be2c89b69c2b068fc378daa952ba7f163c4a11628f55a4df523b3ef60405160405180910390a4505050565b60006132c76001600560008673ffffffffffffffffffffffffffffffffffffffff1673ffffffffffffffffffffffffffffffffffffffff1681526020019081526020016000208054905061351790919063ffffffff16565b90506000600660008481526020019081526020016000205490508181146133b4576000600560008673ffffffffffffffffffffffffffffffffffffffff1673ffffffffffffffffffffffffffffffffffffffff168152602001908152602001600020838154811061333457fe5b9060005260206000200154905080600560008773ffffffffffffffffffffffffffffffffffffffff1673ffffffffffffffffffffffffffffffffffffffff168152602001908152602001600020838154811061338c57fe5b9060005260206000200181905550816006600083815260200190815260200160002081905550505b600560008573ffffffffffffffffffffffffffffffffffffffff1673ffffffffffffffffffffffffffffffffffffffff1681526020019081526020016000208054809190600190036134069190613620565b5050505050565b600080823b905060008111915050919050565b6001816000016000828254019250508190555050565b600073ffffffffffffffffffffffffffffffffffffffff166002600083815260200190815260200160002060009054906101000a900473ffffffffffffffffffffffffffffffffffffffff1673ffffffffffffffffffffffffffffffffffffffff16146134f15760006002600083815260200190815260200160002060006101000a81548173ffffffffffffffffffffffffffffffffffffffff021916908373ffffffffffffffffffffffffffffffffffffffff1602179055505b50565b61350c6001826000015461351790919063ffffffff16565b816000018190555050565b60008282111561358f576040517f08c379a000000000000000000000000000000000000000000000000000000000815260040180806020018281038252601e8152602001807f536166654d6174683a207375627472616374696f6e206f766572666c6f77000081525060200191505060405180910390fd5b600082840390508091505092915050565b828054600181600116156101000203166002900490600052602060002090601f016020900481019282601f106135e157805160ff191683800117855561360f565b8280016001018555821561360f579182015b8281111561360e5782518255916020019190600101906135f3565b5b50905061361c919061364c565b5090565b81548183558181111561364757818360005260206000209182019101613646919061364c565b5b505050565b61366e91905b8082111561366a576000816000905550600101613652565b5090565b9056fe455243373231456e756d657261626c653a206f776e657220696e646578206f7574206f6620626f756e64734552433732313a207472616e7366657220746f206e6f6e20455243373231526563656976657220696d706c656d656e7465724552433732313a207472616e7366657220746f20746865207a65726f20616464726573734552433732313a206f70657261746f7220717565727920666f72206e6f6e6578697374656e7420746f6b656e4552433732313a20617070726f76652063616c6c6572206973206e6f74206f776e6572206e6f7220617070726f76656420666f7220616c6c4552433732313a2062616c616e636520717565727920666f7220746865207a65726f20616464726573734552433732313a206f776e657220717565727920666f72206e6f6e6578697374656e7420746f6b656e4552433732313a20617070726f76656420717565727920666f72206e6f6e6578697374656e7420746f6b656e4552433732313a207472616e73666572206f6620746f6b656e2074686174206973206e6f74206f776e4552433732314d657461646174613a2055524920717565727920666f72206e6f6e6578697374656e7420746f6b656e4552433732313a20617070726f76616c20746f2063757272656e74206f776e65724552433732313a207472616e736665722063616c6c6572206973206e6f74206f776e6572206e6f7220617070726f766564455243373231456e756d657261626c653a20676c6f62616c20696e646578206f7574206f6620626f756e6473a265627a7a7231582070d9ac0159d8510a5c16e6ca6257df7a9950c66d11792b25f27c936b902c3d2964736f6c63430005100032",
  "source": "pragma solidity 0.5.16;\r\n\r\nimport \"./ERC721Full.sol\";\r\n\r\ncontract Character is ERC721Full {\r\n\r\n  mapping(uint256 => Hero) public tokenProperty;\r\n\r\n  struct Hero{\r\n    uint id;\r\n    string hair;\r\n    string face;\r\n    uint attack;\r\n    uint mother;\r\n    uint father;\r\n  }\r\n\r\n  string[] public baseHair = [\r\n    \"30020\",\r\n    \"30400\",\r\n    \"30000\",\r\n    \"31400\"\r\n  ];\r\n\r\n  string[] public baseFace = [\r\n    \"50002\",\r\n    \"50126\",\r\n    \"50006\",\r\n    \"50039\"\r\n  ];\r\n\r\n  Hero[] public characters;\r\n  mapping(string => bool) _itemExists;\r\n\r\n  uint nonce = 0;\r\n  \r\n  constructor() ERC721Full(\"Character\", \"CHARACTER\") public {       \r\n\r\n  }\r\n\r\n  function mint() public {\r\n    uint _tokenId = totalSupply();\r\n\r\n    string memory _hair = baseHair[rand(0, baseHair.length)];\r\n    // uint _hair = 31400;\r\n    string memory _face = baseFace[rand(0, baseFace.length)];\r\n    uint _attack = rand(0,100);\r\n\r\n\r\n    characters.push(Hero({id: _tokenId, hair: _hair, face: _face, attack: _attack, mother: 0, father : 0}));\r\n    tokenProperty[_tokenId] = Hero({id: _tokenId, hair: _hair, face: _face, attack: _attack, mother: 0, father: 0}); \r\n\r\n    _mint(msg.sender, _tokenId);\r\n  }\r\n\r\n  function getTokenProperties(uint256 _tokenId) external view returns(uint _id, string memory _hair, string memory _face,\r\n   uint _attack, uint _mother, uint _father) {\r\n      return (tokenProperty[_tokenId].id, tokenProperty[_tokenId].hair, tokenProperty[_tokenId].face, tokenProperty[_tokenId].attack,\r\n      tokenProperty[_tokenId].mother, tokenProperty[_tokenId].father);\r\n  }\r\n\r\n  function rand(uint min, uint max) public returns (uint){\r\n    nonce++;\r\n    return uint(keccak256(abi.encodePacked(nonce)))%(min+max)-min;\r\n  }\r\n\r\n  /** function to create a new character with parents\r\n   *\r\n   *\r\n   */\r\n  function createHero(uint256 motherid, uint256 fatherid) public returns (uint256) {\r\n\r\n    uint _tokenId = totalSupply();\r\n\r\n    string memory _hair;\r\n    string memory _face;\r\n\r\n    uint _attack = rand(0,100);\r\n    uint hairSelection = rand(0,100);\r\n    uint faceSelection = rand(0,100);\r\n\r\n\r\n    if(0 <= hairSelection && hairSelection <= 30) {\r\n      _hair = tokenProperty[motherid].hair;\r\n    } else if(31 <= hairSelection && hairSelection  <= 60) {\r\n      _hair = tokenProperty[fatherid].hair;\r\n    } else {\r\n      uint mutatedHair = rand(0, 100);\r\n      mutatedHair = mutatedHair / 10;\r\n      mutatedHair = mutatedHair * 10;\r\n      uint mutation = rand(0,7);\r\n      mutatedHair += mutation;\r\n      mutatedHair += 30000;\r\n\r\n\r\n      // mutatedHair = mutatedHair / 10;\r\n      // uint randomInt = rand(0, 7);\r\n      // mutatedHair = mutatedHair * 10;\r\n      // mutatedHair = mutatedHair + randomInt;\r\n\r\n      _hair = uint2str(mutatedHair);\r\n      \r\n    }\r\n    \r\n\r\n    if(faceSelection < 30) {\r\n      _face = tokenProperty[motherid].face;\r\n    // } else if(46 <= faceSelection && faceSelection <= 90) {\r\n    //   _face = tokenProperty[fatherid].face;\r\n    } else if(faceSelection < 60){\r\n      // uint mutatedFace = rand(20000,20100);\r\n      // _face = uint2str(mutatedFace);\r\n      _face = tokenProperty[fatherid].face;\r\n    } else {\r\n      uint mutatedFace = rand(0,100);\r\n      mutatedFace += 20000;\r\n      _face = uint2str(mutatedFace);\r\n\r\n    }\r\n    \r\n    // _face = tokenProperty[fatherid].face;    \r\n\r\n    characters.push(Hero({id: _tokenId, hair: _hair, face: _face, attack: _attack, mother: motherid, father : fatherid}));\r\n    tokenProperty[_tokenId] = Hero({id: _tokenId, hair: _hair, face: _face, attack: _attack, mother: motherid, father: fatherid}); \r\n\r\n    _mint(msg.sender, _tokenId);\r\n  }\r\n\r\n\r\n  // /** @dev Function to breed 2 vipers to create a new one\r\n  //   * @param matronId ID of new viper's matron (one parent)\r\n  //   * @param sireId ID of new viper's sire (other parent)\r\n  //   * @return The new viper's ID\r\n  //   */\r\n  // function breedHero(uint256 matronId, uint256 sireId) external payable returns (uint256) {\r\n  //     require(msg.value == 0.05 ether);\r\n  //     return createHero(matronId, sireId);\r\n  // }\r\n\r\n\r\n  function uint2str(uint _i) internal pure returns (string memory _uintAsString) {\r\n    if (_i == 0) {\r\n        return \"0\";\r\n    }\r\n    uint j = _i;\r\n    uint len;\r\n    while (j != 0) {\r\n        len++;\r\n        j /= 10;\r\n    }\r\n    bytes memory bstr = new bytes(len);\r\n    uint k = len - 1;\r\n    while (_i != 0) {\r\n        bstr[k--] = byte(uint8(48 + _i % 10));\r\n        _i /= 10;\r\n    }\r\n    return string(bstr);\r\n}\r\n\r\n\r\n\r\n\r\n\r\n}\r\n",
  "sourcePath": "C:/Coding/CryptoWarz/client/src/contracts/Character.sol",
  "compiler": {
    "name": "solc",
    "version": "0.5.16+commit.9c3226ce.Emscripten.clang"
  },
  "schemaVersion": "3.3.4",
  "updatedAt": "2021-04-10T10:41:19.481Z",
  "networkType": "ethereum",
  "devdoc": {
    "methods": {
      "approve(address,uint256)": {
        "details": "Approves another address to transfer the given token ID The zero address indicates there is no approved address. There can only be one approved address per token at a given time. Can only be called by the token owner or an approved operator.",
        "params": {
          "to": "address to be approved for the given token ID",
          "tokenId": "uint256 ID of the token to be approved"
        }
      },
      "balanceOf(address)": {
        "details": "Gets the balance of the specified address.",
        "params": {
          "owner": "address to query the balance of"
        },
        "return": "uint256 representing the amount owned by the passed address"
      },
      "getApproved(uint256)": {
        "details": "Gets the approved address for a token ID, or zero if no address set Reverts if the token ID does not exist.",
        "params": {
          "tokenId": "uint256 ID of the token to query the approval of"
        },
        "return": "address currently approved for the given token ID"
      },
      "isApprovedForAll(address,address)": {
        "details": "Tells whether an operator is approved by a given owner.",
        "params": {
          "operator": "operator address which you want to query the approval of",
          "owner": "owner address which you want to query the approval of"
        },
        "return": "bool whether the given operator is approved by the given owner"
      },
      "name()": {
        "details": "Gets the token name.",
        "return": "string representing the token name"
      },
      "ownerOf(uint256)": {
        "details": "Gets the owner of the specified token ID.",
        "params": {
          "tokenId": "uint256 ID of the token to query the owner of"
        },
        "return": "address currently marked as the owner of the given token ID"
      },
      "safeTransferFrom(address,address,uint256)": {
        "details": "Safely transfers the ownership of a given token ID to another address If the target address is a contract, it must implement `onERC721Received`, which is called upon a safe transfer, and return the magic value `bytes4(keccak256(\"onERC721Received(address,address,uint256,bytes)\"))`; otherwise, the transfer is reverted. Requires the msg.sender to be the owner, approved, or operator",
        "params": {
          "from": "current owner of the token",
          "to": "address to receive the ownership of the given token ID",
          "tokenId": "uint256 ID of the token to be transferred"
        }
      },
      "safeTransferFrom(address,address,uint256,bytes)": {
        "details": "Safely transfers the ownership of a given token ID to another address If the target address is a contract, it must implement `onERC721Received`, which is called upon a safe transfer, and return the magic value `bytes4(keccak256(\"onERC721Received(address,address,uint256,bytes)\"))`; otherwise, the transfer is reverted. Requires the msg.sender to be the owner, approved, or operator",
        "params": {
          "_data": "bytes data to send along with a safe transfer check",
          "from": "current owner of the token",
          "to": "address to receive the ownership of the given token ID",
          "tokenId": "uint256 ID of the token to be transferred"
        }
      },
      "setApprovalForAll(address,bool)": {
        "details": "Sets or unsets the approval of a given operator An operator is allowed to transfer all tokens of the sender on their behalf.",
        "params": {
          "approved": "representing the status of the approval to be set",
          "to": "operator address to set the approval"
        }
      },
      "supportsInterface(bytes4)": {
        "details": "See `IERC165.supportsInterface`.      * Time complexity O(1), guaranteed to always use less than 30 000 gas."
      },
      "symbol()": {
        "details": "Gets the token symbol.",
        "return": "string representing the token symbol"
      },
      "tokenByIndex(uint256)": {
        "details": "Gets the token ID at a given index of all the tokens in this contract Reverts if the index is greater or equal to the total number of tokens.",
        "params": {
          "index": "uint256 representing the index to be accessed of the tokens list"
        },
        "return": "uint256 token ID at the given index of the tokens list"
      },
      "tokenOfOwnerByIndex(address,uint256)": {
        "details": "Gets the token ID at a given index of the tokens list of the requested owner.",
        "params": {
          "index": "uint256 representing the index to be accessed of the requested tokens list",
          "owner": "address owning the tokens list to be accessed"
        },
        "return": "uint256 token ID at the given index of the tokens list owned by the requested address"
      },
      "tokenURI(uint256)": {
        "details": "Returns an URI for a given token ID. Throws if the token ID does not exist. May return an empty string.",
        "params": {
          "tokenId": "uint256 ID of the token to query"
        }
      },
      "totalSupply()": {
        "details": "Gets the total amount of tokens stored by the contract.",
        "return": "uint256 representing the total amount of tokens"
      },
      "transferFrom(address,address,uint256)": {
        "details": "Transfers the ownership of a given token ID to another address. Usage of this method is discouraged, use `safeTransferFrom` whenever possible. Requires the msg.sender to be the owner, approved, or operator.",
        "params": {
          "from": "current owner of the token",
          "to": "address to receive the ownership of the given token ID",
          "tokenId": "uint256 ID of the token to be transferred"
        }
      }
    }
  },
  "userdoc": {
    "methods": {
      "createHero(uint256,uint256)": {
        "notice": "function to create a new character with parents    *"
      }
    }
  }
}